{
  "contractName": "Bookmark",
  "abi": [
    {
      "constant": true,
      "inputs": [],
      "name": "owner",
      "outputs": [
        {
          "name": "",
          "type": "address"
        }
      ],
      "payable": false,
      "stateMutability": "view",
      "type": "function"
    },
    {
      "inputs": [],
      "payable": false,
      "stateMutability": "nonpayable",
      "type": "constructor"
    },
    {
      "constant": false,
      "inputs": [
        {
          "name": "show",
          "type": "string"
        }
      ],
      "name": "bookmark",
      "outputs": [
        {
          "name": "",
          "type": "string"
        }
      ],
      "payable": false,
      "stateMutability": "nonpayable",
      "type": "function"
    },
    {
      "constant": true,
      "inputs": [],
      "name": "getBookmarks",
      "outputs": [
        {
          "name": "",
          "type": "string"
        }
      ],
      "payable": false,
      "stateMutability": "view",
      "type": "function"
    }
  ],
  "bytecode": "0x608060405234801561001057600080fd5b5033600160006101000a81548173ffffffffffffffffffffffffffffffffffffffff021916908373ffffffffffffffffffffffffffffffffffffffff16021790555061052d806100616000396000f300608060405260043610610057576000357c0100000000000000000000000000000000000000000000000000000000900463ffffffff168063272431601461005c57806345d9bd151461013e5780638da5cb5b146101ce575b600080fd5b34801561006857600080fd5b506100c3600480360381019080803590602001908201803590602001908080601f0160208091040260200160405190810160405280939291908181526020018383808284378201915050505050509192919290505050610225565b6040518080602001828103825283818151815260200191508051906020019080838360005b838110156101035780820151818401526020810190506100e8565b50505050905090810190601f1680156101305780820380516001836020036101000a031916815260200191505b509250505060405180910390f35b34801561014a57600080fd5b50610153610358565b6040518080602001828103825283818151815260200191508051906020019080838360005b83811015610193578082015181840152602081019050610178565b50505050905090810190601f1680156101c05780820380516001836020036101000a031916815260200191505b509250505060405180910390f35b3480156101da57600080fd5b506101e3610436565b604051808273ffffffffffffffffffffffffffffffffffffffff1673ffffffffffffffffffffffffffffffffffffffff16815260200191505060405180910390f35b6060816000803373ffffffffffffffffffffffffffffffffffffffff1673ffffffffffffffffffffffffffffffffffffffff168152602001908152602001600020908051906020019061027992919061045c565b506000803373ffffffffffffffffffffffffffffffffffffffff1673ffffffffffffffffffffffffffffffffffffffff1681526020019081526020016000208054600181600116156101000203166002900480601f01602080910402602001604051908101604052809291908181526020018280546001816001161561010002031660029004801561034c5780601f106103215761010080835404028352916020019161034c565b820191906000526020600020905b81548152906001019060200180831161032f57829003601f168201915b50505050509050919050565b60606000803373ffffffffffffffffffffffffffffffffffffffff1673ffffffffffffffffffffffffffffffffffffffff1681526020019081526020016000208054600181600116156101000203166002900480601f01602080910402602001604051908101604052809291908181526020018280546001816001161561010002031660029004801561042c5780601f106104015761010080835404028352916020019161042c565b820191906000526020600020905b81548152906001019060200180831161040f57829003601f168201915b5050505050905090565b600160009054906101000a900473ffffffffffffffffffffffffffffffffffffffff1681565b828054600181600116156101000203166002900490600052602060002090601f016020900481019282601f1061049d57805160ff19168380011785556104cb565b828001600101855582156104cb579182015b828111156104ca5782518255916020019190600101906104af565b5b5090506104d891906104dc565b5090565b6104fe91905b808211156104fa5760008160009055506001016104e2565b5090565b905600a165627a7a72305820c9746565a47435232b2fe82c90b0d5976f33f5d6ac4c926c008118a0e9cd30b20029",
  "source": "pragma solidity ^0.4.4;\n\ncontract Bookmark {\n    mapping (address => string) private bookmarks;\n    address public owner;\n\n    function Bookmark() {       \n        owner = msg.sender;\n    }\n\n    function bookmark(string show) public returns (string) {\n        bookmarks[msg.sender] = show;        \n        return bookmarks[msg.sender];\n    }\n\n    function getBookmarks() constant returns (string) {\n        return bookmarks[msg.sender];\n    } \n}",
  "sourcePath": "/home/chinmay/Documents/InOut/tvdapp/contracts/Bookmark.sol",
  "compiler": {
    "name": "solc",
    "version": "0.4.24+commit.e67f0147.Emscripten.clang"
  },
  "schemaVersion": "2.0.1",
  "updatedAt": "2018-10-13T18:14:30.868Z"
}